{
  "contractName": "LuxuryProductRegistry",
  "abi": [
    {
      "inputs": [],
      "stateMutability": "nonpayable",
      "type": "constructor"
    },
    {
      "anonymous": false,
      "inputs": [
        {
          "indexed": false,
          "internalType": "uint256",
          "name": "productId",
          "type": "uint256"
        },
        {
          "indexed": true,
          "internalType": "address",
          "name": "verifier",
          "type": "address"
        }
      ],
      "name": "AuthenticityVerified",
      "type": "event"
    },
    {
      "anonymous": false,
      "inputs": [
        {
          "indexed": false,
          "internalType": "uint256",
          "name": "productId",
          "type": "uint256"
        },
        {
          "indexed": true,
          "internalType": "address",
          "name": "currentOwner",
          "type": "address"
        },
        {
          "indexed": true,
          "internalType": "address",
          "name": "newOwner",
          "type": "address"
        },
        {
          "indexed": false,
          "internalType": "uint256",
          "name": "price",
          "type": "uint256"
        }
      ],
      "name": "OwnershipTransferRequested",
      "type": "event"
    },
    {
      "anonymous": false,
      "inputs": [
        {
          "indexed": false,
          "internalType": "uint256",
          "name": "productId",
          "type": "uint256"
        },
        {
          "indexed": true,
          "internalType": "address",
          "name": "oldOwner",
          "type": "address"
        },
        {
          "indexed": true,
          "internalType": "address",
          "name": "newOwner",
          "type": "address"
        },
        {
          "indexed": false,
          "internalType": "uint256",
          "name": "price",
          "type": "uint256"
        },
        {
          "indexed": true,
          "internalType": "address",
          "name": "manufacturer",
          "type": "address"
        }
      ],
      "name": "OwnershipTransferred",
      "type": "event"
    },
    {
      "anonymous": false,
      "inputs": [
        {
          "indexed": false,
          "internalType": "uint256",
          "name": "productId",
          "type": "uint256"
        },
        {
          "indexed": false,
          "internalType": "string",
          "name": "name",
          "type": "string"
        },
        {
          "indexed": true,
          "internalType": "address",
          "name": "manufacturer",
          "type": "address"
        }
      ],
      "name": "ProductRegistered",
      "type": "event"
    },
    {
      "inputs": [
        {
          "internalType": "address",
          "name": "",
          "type": "address"
        }
      ],
      "name": "manufacturerNames",
      "outputs": [
        {
          "internalType": "string",
          "name": "",
          "type": "string"
        }
      ],
      "stateMutability": "view",
      "type": "function"
    },
    {
      "inputs": [
        {
          "internalType": "address",
          "name": "",
          "type": "address"
        }
      ],
      "name": "manufacturers",
      "outputs": [
        {
          "internalType": "bool",
          "name": "",
          "type": "bool"
        }
      ],
      "stateMutability": "view",
      "type": "function"
    },
    {
      "inputs": [
        {
          "internalType": "uint256",
          "name": "",
          "type": "uint256"
        },
        {
          "internalType": "address",
          "name": "",
          "type": "address"
        }
      ],
      "name": "pendingTransfers",
      "outputs": [
        {
          "internalType": "uint256",
          "name": "",
          "type": "uint256"
        }
      ],
      "stateMutability": "view",
      "type": "function"
    },
    {
      "inputs": [],
      "name": "productCounter",
      "outputs": [
        {
          "internalType": "uint256",
          "name": "",
          "type": "uint256"
        }
      ],
      "stateMutability": "view",
      "type": "function"
    },
    {
      "inputs": [
        {
          "internalType": "uint256",
          "name": "",
          "type": "uint256"
        }
      ],
      "name": "products",
      "outputs": [
        {
          "internalType": "uint256",
          "name": "id",
          "type": "uint256"
        },
        {
          "internalType": "string",
          "name": "name",
          "type": "string"
        },
        {
          "internalType": "string",
          "name": "manufacturer",
          "type": "string"
        },
        {
          "internalType": "address",
          "name": "currentOwner",
          "type": "address"
        },
        {
          "internalType": "bool",
          "name": "isAuthentic",
          "type": "bool"
        },
        {
          "internalType": "uint256",
          "name": "transferPrice",
          "type": "uint256"
        },
        {
          "internalType": "address",
          "name": "manufacturerAddress",
          "type": "address"
        }
      ],
      "stateMutability": "view",
      "type": "function"
    },
    {
      "inputs": [
        {
          "internalType": "address",
          "name": "manufacturer",
          "type": "address"
        },
        {
          "internalType": "string",
          "name": "name",
          "type": "string"
        }
      ],
      "name": "registerManufacturer",
      "outputs": [],
      "stateMutability": "nonpayable",
      "type": "function"
    },
    {
      "inputs": [
        {
          "internalType": "string",
          "name": "name",
          "type": "string"
        }
      ],
      "name": "registerProduct",
      "outputs": [
        {
          "internalType": "uint256",
          "name": "",
          "type": "uint256"
        }
      ],
      "stateMutability": "nonpayable",
      "type": "function"
    },
    {
      "inputs": [
        {
          "internalType": "uint256",
          "name": "productId",
          "type": "uint256"
        }
      ],
      "name": "verifyAuthenticity",
      "outputs": [
        {
          "internalType": "bool",
          "name": "",
          "type": "bool"
        }
      ],
      "stateMutability": "view",
      "type": "function"
    },
    {
      "inputs": [
        {
          "internalType": "uint256",
          "name": "productId",
          "type": "uint256"
        },
        {
          "internalType": "address",
          "name": "newOwner",
          "type": "address"
        },
        {
          "internalType": "uint256",
          "name": "price",
          "type": "uint256"
        }
      ],
      "name": "requestOwnershipTransfer",
      "outputs": [],
      "stateMutability": "nonpayable",
      "type": "function"
    },
    {
      "inputs": [
        {
          "internalType": "uint256",
          "name": "productId",
          "type": "uint256"
        }
      ],
      "name": "acceptOwnershipTransfer",
      "outputs": [],
      "stateMutability": "payable",
      "type": "function"
    },
    {
      "inputs": [
        {
          "internalType": "uint256",
          "name": "productId",
          "type": "uint256"
        }
      ],
      "name": "getOwnershipHistory",
      "outputs": [
        {
          "internalType": "address[]",
          "name": "",
          "type": "address[]"
        }
      ],
      "stateMutability": "view",
      "type": "function"
    },
    {
      "inputs": [
        {
          "internalType": "uint256",
          "name": "productId",
          "type": "uint256"
        }
      ],
      "name": "revokeAuthenticity",
      "outputs": [],
      "stateMutability": "nonpayable",
      "type": "function"
    }
  ],
  "bytecode": "0x6080604052348015600e575f5ffd5b50611c6c8061001c5f395ff3fe6080604052600436106100a6575f3560e01c80637acc0b20116100635780637acc0b20146101cc5780638ab0eab71461020e578063963433e11461024a5780639e4e663414610272578063cfcc4e221461029a578063f1dbaccb146102d6576100a6565b80631f16653b146100aa57806327f38f1c146100d45780632bafcab5146100fc5780634fbbe6cb14610118578063660930e8146101545780636b5eb09c14610190575b5f5ffd5b3480156100b5575f5ffd5b506100be610312565b6040516100cb9190611014565b60405180910390f35b3480156100df575f5ffd5b506100fa60048036038101906100f591906110c2565b610318565b005b61011660048036038101906101119190611112565b6104b7565b005b348015610123575f5ffd5b5061013e6004803603810190610139919061113d565b61082c565b60405161014b9190611014565b60405180910390f35b34801561015f575f5ffd5b5061017a600480360381019061017591906112b7565b61084c565b6040516101879190611014565b60405180910390f35b34801561019b575f5ffd5b506101b660048036038101906101b191906112fe565b610afd565b6040516101c39190611343565b60405180910390f35b3480156101d7575f5ffd5b506101f260048036038101906101ed9190611112565b610b1a565b60405161020597969594939291906113cb565b60405180910390f35b348015610219575f5ffd5b50610234600480360381019061022f9190611112565b610cad565b6040516102419190611343565b60405180910390f35b348015610255575f5ffd5b50610270600480360381019061026b9190611112565b610cda565b005b34801561027d575f5ffd5b5061029860048036038101906102939190611446565b610d95565b005b3480156102a5575f5ffd5b506102c060048036038101906102bb91906112fe565b610ec3565b6040516102cd91906114a0565b60405180910390f35b3480156102e1575f5ffd5b506102fc60048036038101906102f79190611112565b610f5e565b6040516103099190611577565b60405180910390f35b60035481565b823373ffffffffffffffffffffffffffffffffffffffff165f5f8381526020019081526020015f206003015f9054906101000a900473ffffffffffffffffffffffffffffffffffffffff1673ffffffffffffffffffffffffffffffffffffffff16146103b9576040517f08c379a00000000000000000000000000000000000000000000000000000000081526004016103b0906115e1565b60405180910390fd5b5f5f5f8681526020019081526020015f2090508281600601819055508260045f8781526020019081526020015f205f8673ffffffffffffffffffffffffffffffffffffffff1673ffffffffffffffffffffffffffffffffffffffff1681526020019081526020015f20819055508373ffffffffffffffffffffffffffffffffffffffff16816003015f9054906101000a900473ffffffffffffffffffffffffffffffffffffffff1673ffffffffffffffffffffffffffffffffffffffff167f93dfe0f95803b383e0fc94b5c9054d6e38ac4ab6af257c1669a285f0ededbaf887866040516104a89291906115ff565b60405180910390a35050505050565b5f5f5f8381526020019081526020015f2090505f60045f8481526020019081526020015f205f3373ffffffffffffffffffffffffffffffffffffffff1673ffffffffffffffffffffffffffffffffffffffff1681526020019081526020015f205490505f811161055c576040517f08c379a000000000000000000000000000000000000000000000000000000000815260040161055390611696565b60405180910390fd5b8034101561059f576040517f08c379a000000000000000000000000000000000000000000000000000000000815260040161059690611724565b60405180910390fd5b5f6064826105ad919061179c565b9050826007015f9054906101000a900473ffffffffffffffffffffffffffffffffffffffff1673ffffffffffffffffffffffffffffffffffffffff166108fc8290811502906040515f60405180830381858888f19350505050158015610615573d5f5f3e3d5ffd5b505f818361062391906117cc565b90505f846003015f9054906101000a900473ffffffffffffffffffffffffffffffffffffffff1690508073ffffffffffffffffffffffffffffffffffffffff166108fc8390811502906040515f60405180830381858888f1935050505015801561068f573d5f5f3e3d5ffd5b5033856003015f6101000a81548173ffffffffffffffffffffffffffffffffffffffff021916908373ffffffffffffffffffffffffffffffffffffffff1602179055508460040181908060018154018082558091505060019003905f5260205f20015f9091909190916101000a81548173ffffffffffffffffffffffffffffffffffffffff021916908373ffffffffffffffffffffffffffffffffffffffff16021790555060045f8781526020019081526020015f205f3373ffffffffffffffffffffffffffffffffffffffff1673ffffffffffffffffffffffffffffffffffffffff1681526020019081526020015f205f9055846007015f9054906101000a900473ffffffffffffffffffffffffffffffffffffffff1673ffffffffffffffffffffffffffffffffffffffff163373ffffffffffffffffffffffffffffffffffffffff168273ffffffffffffffffffffffffffffffffffffffff167feee16aaad930c97eac8acfc9a9710415d5b6f8a3fd35eced9fccf35213f93a90898860405161081c9291906115ff565b60405180910390a4505050505050565b6004602052815f5260405f20602052805f5260405f205f91509150505481565b5f60025f3373ffffffffffffffffffffffffffffffffffffffff1673ffffffffffffffffffffffffffffffffffffffff1681526020019081526020015f205f9054906101000a900460ff166108d6576040517f08c379a00000000000000000000000000000000000000000000000000000000081526004016108cd9061186f565b60405180910390fd5b60035f8154809291906108e89061188d565b91905055505f60035490505f60015f3373ffffffffffffffffffffffffffffffffffffffff1673ffffffffffffffffffffffffffffffffffffffff1681526020019081526020015f20805461093c90611901565b80601f016020809104026020016040519081016040528092919081815260200182805461096890611901565b80156109b35780601f1061098a576101008083540402835291602001916109b3565b820191905f5260205f20905b81548152906001019060200180831161099657829003601f168201915b505050505090505f5f5f8481526020019081526020015f20905082815f0181905550848160010190816109e69190611ad1565b50818160020190816109f89190611ad1565b5033816007015f6101000a81548173ffffffffffffffffffffffffffffffffffffffff021916908373ffffffffffffffffffffffffffffffffffffffff16021790555033816003015f6101000a81548173ffffffffffffffffffffffffffffffffffffffff021916908373ffffffffffffffffffffffffffffffffffffffff1602179055506001816005015f6101000a81548160ff0219169083151502179055505f81600601819055503373ffffffffffffffffffffffffffffffffffffffff167fd810998a0248808a33b20218e71759cb2ec1a182b398350ad606d742587c012c8487604051610aea929190611ba0565b60405180910390a2829350505050919050565b6002602052805f5260405f205f915054906101000a900460ff1681565b5f602052805f5260405f205f91509050805f015490806001018054610b3e90611901565b80601f0160208091040260200160405190810160405280929190818152602001828054610b6a90611901565b8015610bb55780601f10610b8c57610100808354040283529160200191610bb5565b820191905f5260205f20905b815481529060010190602001808311610b9857829003601f168201915b505050505090806002018054610bca90611901565b80601f0160208091040260200160405190810160405280929190818152602001828054610bf690611901565b8015610c415780601f10610c1857610100808354040283529160200191610c41565b820191905f5260205f20905b815481529060010190602001808311610c2457829003601f168201915b505050505090806003015f9054906101000a900473ffffffffffffffffffffffffffffffffffffffff1690806005015f9054906101000a900460ff1690806006015490806007015f9054906101000a900473ffffffffffffffffffffffffffffffffffffffff16905087565b5f5f5f5f8481526020019081526020015f209050806005015f9054906101000a900460ff16915050919050565b60025f3373ffffffffffffffffffffffffffffffffffffffff1673ffffffffffffffffffffffffffffffffffffffff1681526020019081526020015f205f9054906101000a900460ff16610d63576040517f08c379a0000000000000000000000000000000000000000000000000000000008152600401610d5a9061186f565b60405180910390fd5b5f5f5f8381526020019081526020015f2090505f816005015f6101000a81548160ff0219169083151502179055505050565b60025f8373ffffffffffffffffffffffffffffffffffffffff1673ffffffffffffffffffffffffffffffffffffffff1681526020019081526020015f205f9054906101000a900460ff1615610e1f576040517f08c379a0000000000000000000000000000000000000000000000000000000008152600401610e1690611c18565b60405180910390fd5b600160025f8473ffffffffffffffffffffffffffffffffffffffff1673ffffffffffffffffffffffffffffffffffffffff1681526020019081526020015f205f6101000a81548160ff0219169083151502179055508060015f8473ffffffffffffffffffffffffffffffffffffffff1673ffffffffffffffffffffffffffffffffffffffff1681526020019081526020015f209081610ebe9190611ad1565b505050565b6001602052805f5260405f205f915090508054610edf90611901565b80601f0160208091040260200160405190810160405280929190818152602001828054610f0b90611901565b8015610f565780601f10610f2d57610100808354040283529160200191610f56565b820191905f5260205f20905b815481529060010190602001808311610f3957829003601f168201915b505050505081565b60605f5f8381526020019081526020015f20600401805480602002602001604051908101604052809291908181526020018280548015610ff057602002820191905f5260205f20905b815f9054906101000a900473ffffffffffffffffffffffffffffffffffffffff1673ffffffffffffffffffffffffffffffffffffffff1681526020019060010190808311610fa7575b50505050509050919050565b5f819050919050565b61100e81610ffc565b82525050565b5f6020820190506110275f830184611005565b92915050565b5f604051905090565b5f5ffd5b5f5ffd5b61104781610ffc565b8114611051575f5ffd5b50565b5f813590506110628161103e565b92915050565b5f73ffffffffffffffffffffffffffffffffffffffff82169050919050565b5f61109182611068565b9050919050565b6110a181611087565b81146110ab575f5ffd5b50565b5f813590506110bc81611098565b92915050565b5f5f5f606084860312156110d9576110d8611036565b5b5f6110e686828701611054565b93505060206110f7868287016110ae565b925050604061110886828701611054565b9150509250925092565b5f6020828403121561112757611126611036565b5b5f61113484828501611054565b91505092915050565b5f5f6040838503121561115357611152611036565b5b5f61116085828601611054565b9250506020611171858286016110ae565b9150509250929050565b5f5ffd5b5f5ffd5b5f601f19601f8301169050919050565b7f4e487b71000000000000000000000000000000000000000000000000000000005f52604160045260245ffd5b6111c982611183565b810181811067ffffffffffffffff821117156111e8576111e7611193565b5b80604052505050565b5f6111fa61102d565b905061120682826111c0565b919050565b5f67ffffffffffffffff82111561122557611224611193565b5b61122e82611183565b9050602081019050919050565b828183375f83830152505050565b5f61125b6112568461120b565b6111f1565b9050828152602081018484840111156112775761127661117f565b5b61128284828561123b565b509392505050565b5f82601f83011261129e5761129d61117b565b5b81356112ae848260208601611249565b91505092915050565b5f602082840312156112cc576112cb611036565b5b5f82013567ffffffffffffffff8111156112e9576112e861103a565b5b6112f58482850161128a565b91505092915050565b5f6020828403121561131357611312611036565b5b5f611320848285016110ae565b91505092915050565b5f8115159050919050565b61133d81611329565b82525050565b5f6020820190506113565f830184611334565b92915050565b5f81519050919050565b5f82825260208201905092915050565b8281835e5f83830152505050565b5f61138e8261135c565b6113988185611366565b93506113a8818560208601611376565b6113b181611183565b840191505092915050565b6113c581611087565b82525050565b5f60e0820190506113de5f83018a611005565b81810360208301526113f08189611384565b905081810360408301526114048188611384565b905061141360608301876113bc565b6114206080830186611334565b61142d60a0830185611005565b61143a60c08301846113bc565b98975050505050505050565b5f5f6040838503121561145c5761145b611036565b5b5f611469858286016110ae565b925050602083013567ffffffffffffffff81111561148a5761148961103a565b5b6114968582860161128a565b9150509250929050565b5f6020820190508181035f8301526114b88184611384565b905092915050565b5f81519050919050565b5f82825260208201905092915050565b5f819050602082019050919050565b6114f281611087565b82525050565b5f61150383836114e9565b60208301905092915050565b5f602082019050919050565b5f611525826114c0565b61152f81856114ca565b935061153a836114da565b805f5b8381101561156a57815161155188826114f8565b975061155c8361150f565b92505060018101905061153d565b5085935050505092915050565b5f6020820190508181035f83015261158f818461151b565b905092915050565b7f596f7520617265206e6f74207468652063757272656e74206f776e65722e00005f82015250565b5f6115cb601e83611366565b91506115d682611597565b602082019050919050565b5f6020820190508181035f8301526115f8816115bf565b9050919050565b5f6040820190506116125f830185611005565b61161f6020830184611005565b9392505050565b7f4e6f207472616e73666572207265717565737420666f756e6420666f722074685f8201527f69732070726f647563742e000000000000000000000000000000000000000000602082015250565b5f611680602b83611366565b915061168b82611626565b604082019050919050565b5f6020820190508181035f8301526116ad81611674565b9050919050565b7f496e73756666696369656e74207061796d656e7420666f72207472616e7366655f8201527f722e000000000000000000000000000000000000000000000000000000000000602082015250565b5f61170e602283611366565b9150611719826116b4565b604082019050919050565b5f6020820190508181035f83015261173b81611702565b9050919050565b7f4e487b71000000000000000000000000000000000000000000000000000000005f52601260045260245ffd5b7f4e487b71000000000000000000000000000000000000000000000000000000005f52601160045260245ffd5b5f6117a682610ffc565b91506117b183610ffc565b9250826117c1576117c0611742565b5b828204905092915050565b5f6117d682610ffc565b91506117e183610ffc565b92508282039050818111156117f9576117f861176f565b5b92915050565b7f4f6e6c79206d616e756661637475726572732063616e2063616c6c20746869735f8201527f2066756e6374696f6e2e00000000000000000000000000000000000000000000602082015250565b5f611859602a83611366565b9150611864826117ff565b604082019050919050565b5f6020820190508181035f8301526118868161184d565b9050919050565b5f61189782610ffc565b91507fffffffffffffffffffffffffffffffffffffffffffffffffffffffffffffffff82036118c9576118c861176f565b5b600182019050919050565b7f4e487b71000000000000000000000000000000000000000000000000000000005f52602260045260245ffd5b5f600282049050600182168061191857607f821691505b60208210810361192b5761192a6118d4565b5b50919050565b5f819050815f5260205f209050919050565b5f6020601f8301049050919050565b5f82821b905092915050565b5f6008830261198d7fffffffffffffffffffffffffffffffffffffffffffffffffffffffffffffffff82611952565b6119978683611952565b95508019841693508086168417925050509392505050565b5f819050919050565b5f6119d26119cd6119c884610ffc565b6119af565b610ffc565b9050919050565b5f819050919050565b6119eb836119b8565b6119ff6119f7826119d9565b84845461195e565b825550505050565b5f5f905090565b611a16611a07565b611a218184846119e2565b505050565b5b81811015611a4457611a395f82611a0e565b600181019050611a27565b5050565b601f821115611a8957611a5a81611931565b611a6384611943565b81016020851015611a72578190505b611a86611a7e85611943565b830182611a26565b50505b505050565b5f82821c905092915050565b5f611aa95f1984600802611a8e565b1980831691505092915050565b5f611ac18383611a9a565b9150826002028217905092915050565b611ada8261135c565b67ffffffffffffffff811115611af357611af2611193565b5b611afd8254611901565b611b08828285611a48565b5f60209050601f831160018114611b39575f8415611b27578287015190505b611b318582611ab6565b865550611b98565b601f198416611b4786611931565b5f5b82811015611b6e57848901518255600182019150602085019450602081019050611b49565b86831015611b8b5784890151611b87601f891682611a9a565b8355505b6001600288020188555050505b505050505050565b5f604082019050611bb35f830185611005565b8181036020830152611bc58184611384565b90509392505050565b7f4d616e75666163747572657220616c726561647920726567697374657265642e5f82015250565b5f611c02602083611366565b9150611c0d82611bce565b602082019050919050565b5f6020820190508181035f830152611c2f81611bf6565b905091905056fea26469706673582212201da845ac3969186341cc61d7fe4c544940c000282da6542dbcb248da90f7c73a64736f6c634300081c0033",
  "immutableReferences": {},
  "source": "//SPDX-License-Identifier: MIT\r\npragma solidity ^0.8.0;\r\n\r\ncontract LuxuryProductRegistry {\r\n    // Struct to store product details\r\n    struct Product {\r\n        uint256 id;\r\n        string name;\r\n        string manufacturer;\r\n        address currentOwner;\r\n        address[] previousOwners;\r\n        bool isAuthentic;\r\n        uint256 transferPrice;  // Price for transferring ownership\r\n        address manufacturerAddress;  // Address of the manufacturer\r\n    }\r\n\r\n    // Mapping of product ID to Product details\r\n    mapping(uint256 => Product) public products;\r\n\r\n    // Mapping to track registered manufacturers and their names\r\n    mapping(address => string) public manufacturerNames;\r\n\r\n    // Mapping to track if an address is a manufacturer\r\n    mapping(address => bool) public manufacturers;\r\n\r\n    // Track product count\r\n    uint256 public productCounter;\r\n\r\n    // Events\r\n    event ProductRegistered(uint256 productId, string name, address indexed manufacturer);\r\n    event OwnershipTransferRequested(uint256 productId, address indexed currentOwner, address indexed newOwner, uint256 price);\r\n    event OwnershipTransferred(uint256 productId, address indexed oldOwner, address indexed newOwner, uint256 price, address indexed manufacturer);\r\n    event AuthenticityVerified(uint256 productId, address indexed verifier);\r\n\r\n    // Mapping to track pending transfers (productId => (newOwner => price))\r\n    mapping(uint256 => mapping(address => uint256)) public pendingTransfers;\r\n\r\n    // Only registered manufacturers can call certain functions\r\n    modifier onlyManufacturer() {\r\n        require(manufacturers[msg.sender], \"Only manufacturers can call this function.\");\r\n        _;\r\n    }\r\n\r\n    // Only the current owner of a product can transfer it\r\n    modifier onlyOwner(uint256 productId) {\r\n        require(products[productId].currentOwner == msg.sender, \"You are not the current owner.\");\r\n        _;\r\n    }\r\n\r\n    constructor() public {}\r\n\r\n    // Function to register a new manufacturer\r\n    function registerManufacturer(address manufacturer, string memory name) public {\r\n        require(!manufacturers[manufacturer], \"Manufacturer already registered.\");\r\n        manufacturers[manufacturer] = true;\r\n        manufacturerNames[manufacturer] = name;\r\n    }\r\n\r\n    // Function for a manufacturer to register a new luxury product\r\n    function registerProduct(string memory name) public onlyManufacturer returns (uint256) {\r\n        productCounter++; \r\n        uint256 productId = productCounter; \r\n\r\n        // Automatically fetch the manufacturer's name and address\r\n        string memory manufacturerName = manufacturerNames[msg.sender];\r\n        \r\n        Product storage newProduct = products[productId];\r\n        newProduct.id = productId;\r\n        newProduct.name = name;\r\n        newProduct.manufacturer = manufacturerName; // Automatically set the manufacturer's name\r\n        newProduct.manufacturerAddress = msg.sender; // Store the manufacturer's address\r\n        newProduct.currentOwner = msg.sender;\r\n        newProduct.isAuthentic = true; // Mark the product as authentic by default\r\n        newProduct.transferPrice = 0; // Initially, there is no transfer price set\r\n\r\n        emit ProductRegistered(productId, name, msg.sender);\r\n        \r\n        return productId;  // Return the generated productId\r\n    }\r\n\r\n    // Function to verify authenticity of a product\r\n    function verifyAuthenticity(uint256 productId) public view returns (bool) {\r\n        Product storage product = products[productId];\r\n        return product.isAuthentic;\r\n    }\r\n\r\n    // Function to request ownership transfer\r\n    function requestOwnershipTransfer(uint256 productId, address newOwner, uint256 price) public onlyOwner(productId) {\r\n        Product storage product = products[productId];\r\n\r\n        // Set the transfer price\r\n        product.transferPrice = price;\r\n\r\n        // Store the transfer request in the pendingTransfers mapping\r\n        pendingTransfers[productId][newOwner] = price;\r\n\r\n        emit OwnershipTransferRequested(productId, product.currentOwner, newOwner, price);\r\n    }\r\n\r\n    // Function for the new owner to accept the transfer and pay for it\r\n    function acceptOwnershipTransfer(uint256 productId) public payable {\r\n        Product storage product = products[productId];\r\n        uint256 transferPrice = pendingTransfers[productId][msg.sender];\r\n\r\n        require(transferPrice > 0, \"No transfer request found for this product.\");\r\n        require(msg.value >= transferPrice, \"Insufficient payment for transfer.\");\r\n\r\n        // Calculate 1% of the transfer price to send to the manufacturer\r\n        uint256 manufacturerCut = transferPrice / 100;\r\n\r\n        // Transfer 1% to the manufacturer\r\n        payable(product.manufacturerAddress).transfer(manufacturerCut);\r\n\r\n        // Transfer the remaining amount to the old owner\r\n        uint256 amountToOldOwner = transferPrice - manufacturerCut;\r\n        address oldOwner = product.currentOwner;\r\n        payable(oldOwner).transfer(amountToOldOwner);\r\n\r\n        // Transfer ownership to the new owner\r\n        product.currentOwner = msg.sender;\r\n\r\n        // Store current owner in previous owners\r\n        product.previousOwners.push(oldOwner);\r\n\r\n        // Reset the pending transfer\r\n        delete pendingTransfers[productId][msg.sender];\r\n\r\n        emit OwnershipTransferred(productId, oldOwner, msg.sender, transferPrice, product.manufacturerAddress);\r\n    }\r\n\r\n    // View function to get the ownership history of a product\r\n    function getOwnershipHistory(uint256 productId) public view returns (address[] memory) {\r\n        return products[productId].previousOwners;\r\n    }\r\n\r\n    // Optional: Function to mark a product as no longer authentic (e.g., in case of loss or theft)\r\n    function revokeAuthenticity(uint256 productId) public onlyManufacturer {\r\n        Product storage product = products[productId];\r\n        product.isAuthentic = false;\r\n    }\r\n}",
  "sourcePath": "D:\\Projects\\Supply Chain Web3 System\\supply-chain-project\\contracts\\LuxuryProductRegistry.sol",
  "compiler": {
    "name": "solc",
    "version": "0.8.28+commit.7893614a.Emscripten.clang"
  },
  "schemaVersion": "3.4.16",
  "updatedAt": "2024-11-10T13:42:11.129Z",
  "devdoc": {
    "kind": "dev",
    "methods": {},
    "version": 1
  },
  "userdoc": {
    "kind": "user",
    "methods": {},
    "version": 1
  }
}